:100000000C945D000C9485000C9485000C94850084
:100010000C9485000C9485000C9485000C9485004C
:100020000C9485000C9485000C9485000C9485003C
:100030000C9485000C9485000C9485000C9485002C
:100040000C948C040C9485000C94FC040C94D60441
:100050000C9485000C9485000C9485000C9485000C
:100060000C9485000C94850000000008000201003B
:100070000003040700000000000000000000000072
:10008000250028002B0000000000240027002A0083
:10009000040404040404040402020202020203032E
:1000A0000303030301020408102040800102040836
:1000B00010200102040810202E0511241FBECFEFCE
:1000C000D8E0DEBFCDBF22E0AAE2B2E001C01D92BF
:1000D000AB3FB207E1F712E0A0E0B1E0ECE9FEE0EF
:1000E00002C005900D92AA32B107D9F710E0CDE514
:1000F000D0E004C02197FE010E943807CC35D1071B
:10010000C9F70E9478050C944C070C94000090E00D
:10011000FC01EC55FF4F249180579F4FFC018491C7
:10012000882399F090E0880F991FFC01EA57FF4F50
:10013000A591B491FC01E458FF4F859194918FB73C
:10014000F894EC91E22BEC938FBF089590E0FC01C2
:10015000E859FF4F2491FC01EC55FF4F3491FC010D
:10016000E057FF4FE491EE23C9F0222339F023300A
:1001700001F1A8F4213019F1223029F1F0E0EE0F5D
:10018000FF1FE458FF4FA591B4918FB7F894EC91FD
:10019000611126C030953E233C938FBF08952730D0
:1001A000A9F02830C9F0243049F7809180008F7D74
:1001B00003C0809180008F7780938000DFCF84B56B
:1001C0008F7784BDDBCF84B58F7DFBCF8091B0006E
:1001D0008F778093B000D2CF8091B0008F7DF9CF20
:1001E0003E2BDACF3FB7F8948091420290914302C0
:1001F000A0914402B091450226B5A89B05C02F3FAF
:1002000019F00196A11DB11D3FBFBA2FA92F982F3C
:100210008827BC01CD01620F711D811D911D42E037
:10022000660F771F881F991F4A95D1F708958F92FF
:100230009F92AF92BF92CF92DF92EF92FF924B01CB
:100240005C010E94F2006B017C010E94F2006C19BB
:100250007D098E099F09683E734081059105A8F3C9
:1002600021E0821A9108A108B10888EEC80E83E047
:10027000D81EE11CF11C81149104A104B10429F7DA
:10028000FF90EF90DF90CF90BF90AF909F908F90B6
:100290000895AF92BF92CF92DF92EF92FF920F93A9
:1002A0001F93CF93DF936C017B018B01040F151F0C
:1002B000EB015E01AE18BF08C017D10759F0699174
:1002C000D601ED91FC910190F081E02DC6010995D8
:1002D000892B79F7C501DF91CF911F910F91FF9085
:1002E000EF90DF90CF90BF90AF900895FC01538DB9
:1002F000448D252F30E0842F90E0821B930B541700
:1003000010F0CF96089501970895FC01918D828D8C
:10031000981761F0A28DAE0FBF2FB11D5D968C9125
:10032000928D9F5F9F73928F90E008958FEF9FEF64
:100330000895FC01918D828D981731F0828DE80F20
:10034000F11D858D90E008958FEF9FEF0895FC01DA
:10035000918D228D892F90E0805C9F4F821B9109A7
:100360008F739927089586E492E00E94A70121E007
:10037000892B09F420E0822F0895FC01A48DA80F99
:10038000B92FB11DA35ABF4F2C91848D90E00196D7
:100390008F739927848FA689B7892C93A089B189F7
:1003A0008C91837080648C93938D848D981306C098
:1003B0000288F389E02D80818F7D80830895EF92FC
:1003C000FF920F931F93CF93DF93EC0181E0888F0F
:1003D0009B8D8C8D98131AC0E889F989808185FFDF
:1003E00015C09FB7F894EE89FF896083E889F98981
:1003F00080818370806480839FBF81E090E0DF9183
:10040000CF911F910F91FF90EF900895F62E0B8DD5
:1004100010E00F5F1F4F0F731127E02E8C8D8E1190
:100420000CC00FB607FCFACFE889F989808185FFF7
:10043000F5CFCE010E94BD01F1CFEB8DEC0FFD2F6A
:10044000F11DE35AFF4FF0829FB7F8940B8FEA89B2
:10045000FB8980818062CFCFCF93DF93EC01888DC1
:100460008823B9F0AA89BB89E889F9898C9185FD2F
:1004700003C0808186FD0DC00FB607FCF7CF8C91BD
:1004800085FFF2CF808185FFEDCFCE010E94BD01B7
:10049000E9CFDF91CF910895089590E080E008952D
:1004A000CF92DF92EF92FF920F931F93CF93DF9340
:1004B00086E492E00E94A701892B09F049C0DF91F0
:1004C000CF911F910F91FF90EF90DF90CF90089503
:1004D000C1E0D0E02FB7F89480913E0290913F02A6
:1004E000A0914002B09141022FBF80934E029093A1
:1004F0004F02A0935002B093510286E492E00E9412
:10050000850197FF59C02FB7F89480913E029091D2
:100510003F02A0914002B09141022FBF40914E0294
:1005200050914F026091500270915102841B950BC3
:10053000A60BB70B40914A0250914B0260914C02BE
:1005400070914D0284179507A607B707B0F2B0CF98
:10055000D0E0C0E0BFCF6F014EE151E0209709F439
:10056000B9CFBE012197F60122916F01022E000C36
:10057000330B2817390731F0209709F4ABCF4F5FC1
:100580005F4FEFCF209709F4A3CF8A010F5F1F4F72
:10059000AEE1B1E030E020E0FD90F801E1908F01A4
:1005A000EF1005C02F5F3F4F2C173D07A8F3C21770
:1005B000D30729F7EB018ECFFE01E25EFE4F2081CB
:1005C000022E000C330B8217930729F62196C330B5
:1005D000D10509F07FCF61E08DE00E94A60068EEB2
:1005E00073E080E090E00E94170160E08DE00E94DF
:1005F000A60086E492E00E94A701892B09F458CF57
:1006000086E492E00E9485012091390230913A02FD
:10061000A9014F5F5F4F50933A0240933902265D24
:100620003D4FF90180838A3221F781E090E0909379
:100630003C0280933B0243CF0E94B30181110C9492
:1006400050020895FB0101900020E9F73197AF01B6
:10065000461B570BDC01ED91FC910280F381E02DEC
:100660000994BC0183EE92E00C942203CF93DF93B4
:10067000EC0160E08E810E94A60061E08E810E9404
:10068000A60060E08E810E94A6008BE891E00197B1
:10069000F1F7DF91CF910895CF92DF92EF92FF9221
:1006A0000F931F93CF93DF936C017C0187E0E80EDB
:1006B000F11CD0E0C0E0062F10E0B8010C2E02C003
:1006C000759567950A94E2F76170F70181917F0152
:1006D0000E94A6002196C430D10579F7C601DF91AA
:1006E000CF911F910F91FF90EF90DF90CF900C94DE
:1006F0003603CF92DF92EF92FF920F931F93CF9327
:10070000DF93EC01F62E642F8C810E94A6008D8170
:100710008F3F19F060E00E94A6000F2D10E08F853A
:1007200084FF25C06E0187E0C80ED11CF12CE12C9E
:10073000B8010E2C02C0759567950A94E2F76170B6
:10074000F60181916F010E94A600FFEFEF1AFF0AE8
:1007500088E0E816F10461F7CE01DF91CF911F9197
:100760000F91FF90EF90DF90CF900C943603B8017B
:1007700084E0759567958A95E1F7CE010E944C0358
:100780006F2DCE01DF91CF911F910F91FF90EF90D0
:10079000DF90CF900C944C0340E0682F83EE92E002
:1007A0000C94790381E00E94CC038BE39FE10197D5
:1007B000F1F70895CF93DF93823029F49091F202FC
:1007C00098609093F2028093F6021092F70280E410
:1007D0008093F80280E18093F90280E58093FA0229
:1007E0008091E7020E9487008091E8028F3F11F01C
:1007F0000E9487008091E9020E948700C3EED2E048
:100800009E01235E32408091F20284FD0AC084E0A2
:1008100090E02196281739073CF48E810E948700CA
:10082000EFCF88E090E0F5CF8BE39DE00197F1F703
:1008300060E08091E7020E94A60060E08091E902FA
:100840000E94A6008091E8028F3F19F060E00E94AC
:10085000A6008091F20284FD34C063E083EE92E052
:100860000E944C03CBE4D6E4CE010197F1F763E09C
:1008700083EE92E00E944C032197F1F763E083EE50
:1008800092E00E944C0383E592E00197F1F762E069
:1008900083EE92E00E944C038091F20280620E94FB
:1008A000CC0384E08093F3028CE00E94CC030E948E
:1008B000D20382E08093F40286E0DF91CF910C9422
:1008C000CC0380620E94CC038BE496E40197F1F79D
:1008D0008091F20280620E94CC0383E592E001974E
:1008E000F1F78091F20280620E94CC03D5CF909103
:1008F000F602691710F06FEF690FE62FF0E0ED5187
:10090000FD4F9489890F80680C94CC0341E00E94CC
:10091000790381E090E008951F920F920FB60F9235
:1009200011242F933F938F939F93AF93BF93809105
:100930003E0290913F02A0914002B091410230915D
:100940003D0223E0230F2D3758F50196A11DB11D5F
:1009500020933D0280933E0290933F02A093400279
:10096000B09341028091420290914302A0914402CF
:10097000B09145020196A11DB11D80934202909352
:100980004302A0934402B0934502BF91AF919F915F
:100990008F913F912F910F900FBE0F901F90189540
:1009A00026E8230F0296A11DB11DD2CF1F920F92F0
:1009B0000FB60F9211242F933F934F935F936F9332
:1009C0007F938F939F93AF93BF93EF93FF9386E4AF
:1009D00092E00E94BD01FF91EF91BF91AF919F9175
:1009E0008F917F916F915F914F913F912F910F90D8
:1009F0000FBE0F901F9018951F920F920FB60F9277
:100A000011242F938F939F93EF93FF93E0915602BE
:100A1000F09157028081E0915C02F0915D0282FDCD
:100A20001BC0908180915F028F5F8F732091600265
:100A3000821741F0E0915F02F0E0EA5BFD4F958F95
:100A400080935F02FF91EF919F918F912F910F9073
:100A50000FBE0F901F9018958081F4CFE6E4F2E06E
:100A60001382128288EE93E0A0E0B0E08483958345
:100A7000A683B78384E091E09183808385EC90E046
:100A80009587848784EC90E09787868780EC90E058
:100A9000918B808B81EC90E0938B828B82EC90E049
:100AA000958B848B86EC90E0978B868B118E128EC3
:100AB000138E148EE3EEF2E01382128286E191E04F
:100AC0009183808386E084838FEF858387E08683AC
:100AD00088E0878389E080878AE081878BE082874E
:100AE0001386148615861686178681E00C94DA0321
:100AF000789484B5826084BD84B5816084BD85B5F9
:100B0000826085BD85B5816085BD80916E00816004
:100B100080936E00109281008091810082608093AA
:100B200081008091810081608093810080918000AC
:100B30008160809380008091B10084608093B100D7
:100B40008091B00081608093B00080917A008460D1
:100B500080937A0080917A00826080937A008091FD
:100B60007A00816080937A0080917A008068809317
:100B70007A001092C1008DE00E94870083E00E94FD
:100B8000870084E00E94870085E00E94870060E083
:100B900080E00E94770482E291E00E94310361E0EC
:100BA00080E00E94770483E391E00E94310360EDCE
:100BB00077E080E090E00E9417010E94D20384E475
:100BC00091E00E94310368EE73E080E090E00E94C3
:100BD000170161E080E00E94770483E591E00E94C4
:100BE000310360E671E086E492E00E94220362E74E
:100BF00071E086E492E00E94220364EF71E080E0FD
:100C000090E00E94170165E771E086E492E00E949F
:100C1000220362E771E086E492E00E94220368EE1C
:100C200073E080E090E00E9417010E94D20360E030
:100C300080E00E9477048FE791E00E94310361E039
:100C400080E00E94770480E991E00E943103CFECBC
:100C5000D6E082E00E94DA03E0915602F09157025A
:100C600082E08083E0915202F09153021082E09181
:100C70005402F0915502C08310925E02E0915A0234
:100C8000F0915B02D083E0915802F091590280818B
:100C900080618083E0915802F091590280818860E0
:100CA0008083E0915802F0915902808180688083AE
:100CB000E0915802F091590280818F7D808360E03D
:100CC00080E00E94770482EA91E00E9431038091E3
:100CD0003B0290913C02019709F054C045E050E07E
:100CE00062EB71E08AE292E00E943E07892B59F4A0
:100CF00061E085E00E94A60061E08DE00E9477043B
:100D000088EB91E029C046E050E06FEB71E08AE2A9
:100D100092E00E943E07892B59F460E085E00E9432
:100D2000A60061E08DE00E94770486EC91E014C09B
:100D300045E050E06EEC71E08AE292E00E943E07EE
:100D4000892B41F561E083E00E94A60061E080E02C
:100D50000E94770485ED91E00E94310368EC70E019
:100D600080E090E00E94170110923C0210923B023A
:100D700010923A021092390268EE73E080E090E03F
:100D80000E9417010E94B301882309F462CF0E94D8
:100D900050025FCF47E050E06BED71E08AE292E0F5
:100DA0000E943E07892B39F460E083E00E94A60090
:100DB00061E080E0B8CF48E050E063EE71E08AE2A5
:100DC00092E00E943E07892B39F461E084E00E94A2
:100DD000A60061E087E092CF49E050E06CEE71E060
:100DE0008AE292E00E943E07892B39F460E084E0B9
:100DF0000E94A60061E087E096CF46E050E066EFF3
:100E000071E08AE292E00E943E07892B99F461E04A
:100E100084E00E94A60061E083E00E94A60061E0F9
:100E200085E00E94A60061E080E00E9477048DEFDB
:100E300091E092CF47E050E06FE072E08AE292E00A
:100E40000E943E07892B09F08FCF60E084E00E946A
:100E5000A60060E083E00E94A60060E085E00E94BA
:100E6000A60061E080E00E94770487E192E074CF01
:100E7000EE0FFF1F0590F491E02D0994FB01DC01BA
:100E80004150504030F08D910190801919F40020AC
:0C0E9000B9F7881B990B0895F894FFCF68
:100E9C0000000000DF01490176012C02A701850149
:100EAC00990100000000860449014D024C022341C7
:100EBC002E0047534D20436F6E74726F6C20486F39
:100ECC006D65002020204175746F6D61746F6E200C
:100EDC00202020004369726375697420446967653A
:100EEC0073740053797374656D2052656164790075
:100EFC0041542B434E4D493D322C322C302C302C4E
:100F0C0030000D0A0041542B434D47463D310046FD
:100F1C00616E2020204C6967687420205456200094
:100F2C004F4646202020204F46462020204F464644
:100F3C00200046616E2020204C6967687420205484
:100F4C0056007476206F6E004F4E202020200074C7
:100F5C0076206F6666004F46462020202000666192
:100F6C006E206F6E004F4E2020200066616E206F49
:100F7C006666006C69676874206F6E006C696768E0
:100F8C0074206F666600616C6C206F6E004F4E2093
:100F9C00202020204F4E202020204F4E202000616A
:100FAC006C6C206F6666004F46462020204F4646EC
:0A0FBC00202020204F464620200090
:00000001FF
